:020000040800F2
:100000000809002091010008871900088D140008D4
:1000100085190008AD0400083F1C0008000000001E
:100020000000000000000000000000008B19000824
:10003000D904000800000000891900088D19000883
:10004000AB010008AB010008AB010008AB010008E0
:10005000AB010008AB010008AB010008AB010008D0
:10006000AB010008AB010008AB010008B1040008B7
:10007000AB010008AB010008AB010008AB010008B0
:10008000AB010008AB010008AB010008AB010008A0
:10009000AB010008AB010008AB010008AB01000890
:1000A000AB010008AB010008AB010008AB01000880
:1000B000AB010008AB010008FD190008AB01000806
:1000C000AB010008AB010008AB010008AB01000860
:1000D000AB010008AB010008AB010008AB01000850
:1000E000AB010008AB010008AB01000800F002F80A
:1000F00000F03FF80AA090E8000C82448344AAF183
:100100000107DA4501D100F034F8AFF2090EBAE880
:100110000F0013F0010F18BFFB1A43F0010318473B
:10012000C41C0000E41C0000103A24BF78C878C149
:10013000FAD8520724BF30C830C144BF04680C60ED
:10014000704700000023002400250026103A28BF35
:1001500078C1FBD8520728BF30C148BF0B60704739
:10016000752900F07580002070471FB51FBD10B5C0
:1001700010BD00F05BF91146FFF7F7FF01F07EFDBF
:1001800000F079F903B4FFF7F2FF03BC00F080F947
:100190000948804709480047FEE7FEE7FEE7FEE71B
:1001A000FEE7FEE7FEE7FEE7FEE7FEE70448054957
:1001B000054A064B70470000F9190008ED000008D9
:1001C0000803002008090020080500200805002079
:1001D0000FB4044910B503AA029800F0F9F810BC56
:1001E0005DF814FB100000202DE9F0410E46044696
:1001F000002020622046E168884730B3252805D0DA
:10020000D4E901219047206A401CF2E7E1682046CA
:1002100000278847050018D0A5F14100192802D809
:1002200020354FF400673246294620462760FFF705
:1002300097FF40B1012804D0F61D26F007060836C6
:10024000D8E7361DD6E72846DAE7206ABDE8F08110
:100250002DE9F0410646002410687529314616A59F
:1002600010D0AFF30080002802DA404213A507E067
:1002700031688A0701D512A502E0490704D511A506
:10028000012401E0AFF3008000210A2206F12407D7
:1002900009E0B0FBF2FCB0FBF2F302FB1C003030D3
:1002A00078541846491C0028F3D123462A46304684
:1002B000BDE8F04100F032B8000000002D00000061
:1002C0002B000000200000004FF0000200B5134694
:1002D00094469646203922BFA0E80C50A0E80C5066
:1002E000B1F12001BFF4F7AF090728BFA0E80C5017
:1002F00048BF0CC05DF804EB890028BF40F8042B10
:1003000008BF704748BF20F8022B11F0804F18BF7C
:1003100000F8012B70477047704770472DE9F04790
:100320000D4699469246044600F124080168880665
:1003300004D5E06921F01001216000E00120A8420D
:1003400001DD471B00E00027A1697A1902EB0900D3
:10035000081AA0612078C00602D42046AFF30080BE
:10036000002608E0D4E901211AF806009047206A27
:10037000401C761C20624E45F4DB2078C0060AD56E
:100380002046AFF3008006E0D4E9012130209047F9
:10039000206A401C2062381EA7F10107F4DC07E048
:1003A000D4E9012118F805009047206A401C20621A
:1003B000281EA5F10105F3DC2046AFF3008020786C
:1003C000000602D50220BDE8F0870120FBE700000F
:1003D000074B70B50D467B4400F011F804462846E3
:1003E00000F020F810B14FF0FF3070BD204670BD16
:1003F0008718000001694A1C02610878704700B53F
:100400008FB0CDE901310021059105497944CDE94D
:10041000031011466846FFF7E7FE0FB000BD00006D
:10042000E5FFFFFF007B00F080007047754600F09D
:100430002BF8AE4605006946534620F00700854676
:1004400018B020B5FFF7B2FEBDE820404FF000061F
:100450004FF000074FF000084FF0000B21F00701AC
:10046000AC46ACE8C009ACE8C009ACE8C009ACE8EF
:10047000C0098D46704710B50446AFF30080204692
:10048000BDE81040FFF77EBE00487047A80200207C
:1004900001491820ABBEFEE72600020070470000AD
:1004A000014901200870704700000020FEE70000AD
:1004B00010B5084C2068C0F3400018B1FFF7F0FFFA
:1004C000022060602068C0F3C000002801D008202E
:1004D000606010BD00000240704700002DE9F84F39
:1004E000DFF8B891002409F1040A0AF1040B23464D
:1004F0000F270BF1040EC9E00125A5402A40AA42AE
:100500007DD1674ED1F804C0ACEB0608B44532D0BB
:1005100014DCBCF1030F3AD009DCBCF1000F2AD087
:10052000BCF1010F1CD0BCF1020F31D11DE0BCF1B8
:10053000110F17D0BCF1120F2AD119E0B8F5881F9E
:1005400019D006DCB8F5803F15D0B8F5801F1FD153
:1005500011E0B8F5001F0ED0B8F5041F18D10AE05D
:10056000CB6815E0CB681B1D12E0CB6808330FE0A9
:10057000CB680C330CE08B682BB1012B4FF00803D8
:1005800003D0456104E0042302E0056100E000239C
:10059000FF2A01D8064601E000F104064FEA84056F
:1005A00001D9A5F12005D6F8008007FA05FC28EA54
:1005B0000C0803FA05F548EA0508C6F800804D68FE
:1005C000ED0062D5374DAE6946F00106AE61AD690A
:1005D00024F0030605F001050095334D06EB050CEC
:1005E000DCF80850A607360F07FA06F825EA0805D2
:1005F000DFF8B880404503D14FF0000817E044E031
:10060000DFF8AC80404502D14FF001080FE0DFF881
:10061000A480404502D14FF0020808E0DFF898803E
:10062000404502D14FF0030801E04FF0040808FAFA
:1006300006F848EA0508CCF808804D68D9F800604B
:10064000ED034D4601D5164300E096432E604D68FC
:10065000DAF80060AD03554601D5164300E0964335
:100660002E604D68DBF80060ED025D4601D5164353
:1006700000E096432E604D68DEF80060AD027546DE
:1006800001D5164300E096432E60641C0D682A468F
:10069000E5407FF431AFBDE8F88F00000004014071
:1006A000000011100010024000000140000801404D
:1006B000000C01400010014000140140C26821EA12
:1006C00002030A4043EA0241016170470AB1016135
:1006D00070470904FBE7000001488068704700008C
:1006E000140000200248816802781144816070473C
:1006F00014000020074810B5016841F010010160A6
:10070000032000F075F80F2000F006F800F024F840
:10071000002010BD0020024070B50D4D04464FF47E
:100720007A712878B1FBF0F00A490968B1FBF0F062
:1007300000F042FB48B9102C07D200222146501E7F
:1007400000F036F800206C6070BD012070BD000024
:1007500014000020200000200C4808B5816941F0F9
:1007600001018161816901F001010091C16941F0DC
:100770008051C161C06900F0805000900448416818
:1007800021F0E06141F00071416008BD00100240BD
:1007900000000140002809DB00F01F020121914008
:1007A0004009800000F1E020C0F80011704700000F
:1007B000F0B40E4B1B680C46C3F30223C3F10705CC
:1007C000042D00D90425191D072901D2002300E0BA
:1007D000DB1E012606FA05F1491E214099409E4084
:1007E000761E16403143F0BC01F02ABA0CED00E051
:1007F000064900F0070208684FF6FF03184040EA78
:100800000220034A10430860704700000CED00E02E
:100810000000FA052DE9F84305460078354CC0077D
:1008200054D0E0690026C00008D4E06940F0805050
:10083000E061E069012600F0805000902E480168D8
:10084000C90512D40168804641F480710160FFF748
:1008500043FF074605E000BFFFF73EFFC01B6428CB
:1008600023D8D8F80000C005F6D5206A10F44070EF
:1008700021D0A98801F4407181421CD0206A1F490F
:10088000012220F440700A6000220A602062C00742
:1008900011D0FFF721FF074641F2883808E000BF7A
:1008A000FFF71AFFC11B414502D90320BDE8F883B9
:1008B000206A8007F4D5206A696820F440700843F4
:1008C00020621EB1E06920F08050E0612878800746
:1008D00005D56068A96820F4404008436060287826
:1008E000C00605D56068E96820F4800008436060B0
:1008F0000020DBE70010024000700040400442424C
:100900002DE9F0470F46050061D0434E306800F0F6
:100910000700B84209D2306820F007003843306041
:10092000306800F00700B84251D128683B4C81077D
:1009300012D5400703D5606840F4E0606060287815
:10094000000703D5606840F4605060606068A96883
:1009500020F0F000084360602878C00728D068685D
:10096000012810D02168022810D0890700292EDA2A
:10097000616821F0030101436160FFF7ADFE80462D
:1009800041F288390DE021688903EFE78901EDE73D
:10099000FFF7A2FEA0EB0801494502D90320BDE8FC
:1009A000F0876068696800F00C00B0EB810FEFD150
:1009B000306800F00700B8420BD9306820F007001B
:1009C00038433060306800F00700B84201D00120A1
:1009D000E5E72878400705D56068E96820F4E0601D
:1009E000084360602878000706D56068296920F40C
:1009F000605040EAC100606000F018F86168084A81
:100A0000C1F30311515CC8400649086006480068FC
:100A1000FFF782FE0020C2E70020024000100240E3
:100A2000D31D0008200000201800002012A185B06E
:100A30000FC98DE80F0014A0144A00680490516893
:100A4000134801F00C03042B10D0082B0ED1C1F376
:100A50008343C9031DF803000AD5516804AAC1F3F2
:100A60004041515C0A4A5043B0FBF1F005B0704779
:100A700008494843FAE7000002030405060708098D
:100A80000A0B0C0D0E0F10100102000000100240A6
:100A900000127A0000093D002DE9F84F040070D0E3
:100AA0002078C04DC00749D06868C0F38100012894
:100AB00007D06868C0F38100022809D16868C003C4
:100AC00006D52868800339D560680028E7D035E06E
:100AD0006068B0F5803F0BD010B1B0F5A02F11D0F9
:100AE000286820F480302860286820F4802002E004
:100AF000286840F480302860606890B1FFF7ECFD12
:100B000006460AE0286840F480202860F0E700BF2D
:100B1000FFF7E2FD801B642873D828688003F7D5AF
:100B20000CE0FFF7D9FD064605E000BFFFF7D4FD56
:100B3000801B6428F0D828688003F7D420789A4E68
:100B400080074FF001094FF0000839D5686810F0B0
:100B50000C0F07D06868C0F38100022809D16868CB
:100B6000C00306D42868800714D52069012808D15D
:100B700010E02069B0B1C6F80090FFF7ADFD074660
:100B800005E00AE1FFF7A8FDC01B0228C4D82868C9
:100B90008007F7D52868616920F0F80040EAC100B5
:100BA00028600DE0C6F80080FFF796FD074604E0D8
:100BB000FFF792FDC01B022823D828688007F7D4CE
:100BC000207800072CD57948A169D9B1C0F80090E8
:100BD000FFF782FD074604E0FFF77EFDC01B0228F9
:100BE0000FD8686A8007F7D571484FF4FA5100684A
:100BF000B0FBF1F0009000BF0098411E0091FAD2C6
:100C00000EE080E0C0F80080FFF766FD074604E0D4
:100C1000FFF762FDC01B022875D8686A8007F7D409
:100C20002078400760D5E8690027C00008D4E8694B
:100C300040F08050E861E869012700F080500090A2
:100C40005C480168C90513D40168834641F480718A
:100C50000160FFF741FD824606E000BFFFF73CFD63
:100C6000A0EB0A0064284ED8DBF80000C005F5D5DB
:100C7000E06801280AD008B1052813D0286A20F0BE
:100C800001002862286A20F0040002E0286A40F08F
:100C900001002862E06841F2883B98B1FFF71CFD33
:100CA00082460BE0286A40F004002862EEE700BFAD
:100CB000FFF712FDA0EB0A0159455AD8286A8007B0
:100CC000F6D50CE0FFF708FD824605E0FFF704FDCE
:100CD000A0EB0A0159454CD8286A8007F6D41FB109
:100CE000E86920F08050E861E06988B36968C1F381
:100CF0008101022944D00228C6F8608004D0FFF7A1
:100D0000EBFC044638E034E0FFF7E6FC074604E07D
:100D1000FFF7E2FCC01B02282BD828688001F7D41B
:100D2000206AB0F5803F05D16868A16820F40030E2
:100D300008436860D4E908010843696821F4741124
:100D400008436860C6F86090FFF7C6FC044606E0FA
:100D500025E000BFFFF7C0FC001B022809D8286867
:100D60008001F7D51BE000BFFFF7B6FC001B02288F
:100D700002D90320BDE8F88F28688001F4D40EE082
:100D80000128F7D06868226A00F48031914204D1CA
:100D9000616A00F47010884201D00120EAE7002067
:100DA000E8E7000000100240000042428004424296
:100DB000200000200070004010B5401EB0F1807F80
:100DC00001D3012010BD4FF0E02460610F216017B6
:100DD00000F036FF0020A06107202061002010BD38
:100DE0007047704770B590F83C20012A26D0012446
:100DF00080F83C40022280F83D2003685A689D68D4
:100E000022F070060A6832435A600D4B02689A421B
:100E100008D0B2F1804F05D00A4B9A4202D00A4B5B
:100E20009A4204D1496825F080031943916080F803
:100E30003D40002180F83C10084670BD022070BD86
:100E4000002C0140000400400008004010B50400E0
:100E500003D094F83D0010B107E0012010BD002040
:100E600084F83C00204600F01FF8022084F83D0082
:100E7000211D206800F0C8FD012084F8460084F898
:100E80003E0084F83F0084F8400084F8410084F874
:100E9000420084F8430084F8440084F8450084F854
:100EA0003D00002010BD000008B501681048B1F1F8
:100EB000804F14D00F4A914219D1C16941F0040109
:100EC000C161C069002200F00400009011461E209C
:100ED000FFF76EFCBDE808401E20FFF75BBCC16950
:100EE00041F00101C161C06900F00100009008BD3E
:100EF000001002400008004070B5044690F83C0025
:100F0000012817D0012584F83C50022084F83D00C8
:100F10002068826822F0770222F47F4282600868AB
:100F2000502830D00DDC20284DD005DC98B3102897
:100F30003BD148E0022070BD302844D0402834D155
:100F400039E0602828D0702806D0B0F5805F2CD01A
:100F5000B0F5005F29D10AE0CB68D1E90121206812
:100F600000F095FD2068816841F0770109E0CB68C9
:100F7000D1E90121206800F08AFD2068816841F4F0
:100F80008041816011E0CA684968206800F034FE41
:100F90005021206807E016E0CA684968206800F020
:100FA0003CFE6021206800F07CFD84F83D5000206C
:100FB00084F83C0070BDCA684968206800F01CFED7
:100FC00040212068EFE7226801461046EBE77047B2
:100FD00070B50446006801694FF00005C9438907F0
:100FE00015D4C168C943890711D4E91E01610120E4
:100FF0002077206880698007204602D0FFF7E7FF4E
:1010000004E000F0E3F8204600F0EFF925772068CF
:101010000169C943490717D4C168C943490713D4B3
:101020006FF004010161022020772068806910F4CC
:10103000407F204602D0FFF7CAFF04E000F0C6F868
:10104000204600F0D2F9257720680169C9430907D5
:1010500016D4C168C943090712D46FF008010161B1
:10106000042020772068C0698007204602D0FFF75F
:10107000AEFF04E000F0AAF8204600F0B6F92577AC
:1010800020680169C943C90617D4C168C943C906A4
:1010900013D46FF010010161082020772068C06927
:1010A00010F4407F204602D0FFF791FF04E000F0EB
:1010B0008DF8204600F099F9257720680169C94329
:1010C000C90708D1C168C943C90704D1891E016194
:1010D000204600F0D9F920680169C943090609D4FE
:1010E000C168C943090605D46FF08001016120463B
:1010F000FFF776FE20680169C943490609D4C16833
:10110000C943490605D46FF040010161204600F053
:10111000BCF920680169C94389060BD4C168C94379
:10112000890607D46FF0200101612046BDE87040B8
:10113000FFF757BE70BD000000B585B000210091DB
:101140000191029103910068B0F1804F11D10A48DA
:10115000816941F0040181618069694600F0040001
:101160000490042000900220019003900348FFF7B0
:10117000B5F905B000BD00000010024000080140B4
:1011800010B5044690F83C0001280AD0012084F8EC
:101190003C0042B1042A0AD0082A0CD00C2A11D1F2
:1011A0000DE0022010BD206800F084FC0AE02068F9
:1011B00000F0A8FC06E0206800F0D0FC02E0206807
:1011C00000F0F8FC002084F83C0010BD704710B51A
:1011D000040003D094F83D0010B107E0012010BDD9
:1011E000002084F83C00204600F01EF8022084F81D
:1011F0003D00211D206800F007FC012084F8460016
:1012000084F83E0084F83F0084F8400084F84100F0
:1012100084F8420084F8430084F8440084F84500D0
:1012200084F83D00002010BD7047000010B5044652
:10123000022249B104290ED0082913D094F84100A4
:10124000012816D0012010BD94F83E000128F9D1E4
:1012500084F83E200FE094F83F000128F2D184F892
:101260003F2008E094F840000128EBD184F84020AA
:1012700001E084F841200122206800F0FBFB0F49C7
:101280002068884203D1426C42F4004242642068E4
:10129000884208D0B0F1804F05D00949884202D079
:1012A0000849884204D1816801F00701062903D06A
:1012B000016841F001010160002010BD002C0140D7
:1012C000000400400008004070B5044690F83C005F
:1012D0000D4601280AD0012084F83C0042B1042ABE
:1012E00018D0082A2AD00C2A4DD139E0022070BD2E
:1012F000206800F0DFFB2068816941F0080181610E
:101300002068816921F004018161206881692A696E
:10131000114311E0206800F0F5FB2068816941F479
:10132000006181612068816921F4806181612068A8
:1013300081692A6941EA0221816124E0206800F084
:101340000DFC2068C16941F00801C1612068C169D4
:1013500021F00401C1612068C1692A69114311E0CB
:10136000206800F027FC2068C16941F40061C16178
:101370002068C16921F48061C1612068C1692A695E
:1013800041EA0221C161002084F83C0070BD10B523
:10139000040003D094F83D0010B107E0012010BD17
:1013A000002084F83C00204600F01EF8022084F85B
:1013B0003D00211D206800F027FB012084F8460035
:1013C00084F83E0084F83F0084F8400084F841002F
:1013D00084F8420084F8430084F8440084F845000F
:1013E00084F83D00002010BD7047704710B50446DA
:1013F000022249B104290ED0082913D094F84100E3
:10140000012816D0012010BD94F83E000128F9D122
:1014100084F83E200FE094F83F000128F2D184F8D0
:101420003F2008E094F840000128EBD184F84020E8
:1014300001E084F841200122206800F01BFB0F49E5
:101440002068884203D1426C42F400424264206822
:10145000884208D0B0F1804F05D00949884202D0B7
:101460000849884204D1816801F00701062903D0A8
:10147000016841F001010160002010BD002C014015
:10148000000400400008004070477047FEE700007D
:101490000D4B10B59B6800220C4C03F00103A468AF
:1014A00004F00104234302D00122104610BD096854
:1014B00029B1436823F470230B434360F5E7416887
:1014C00021F470214160F0E7002401400028014030
:1014D00010B58368002213F0010F02D001221046DC
:1014E00010BD43684C6823F48073234343608368D2
:1014F000096823F400630B438360F0E770B54B6821
:101500008468002214F0010F02D00122104670BD41
:1015100033B18C682343446824F46844234302E0D5
:10152000436823F468434360CC680B6885682343B1
:101530000C69064E35402C43234383604968C36AD7
:1015400023F470030B43C362E0E70000FDFEF1FFEC
:10155000044908B58A6902438A618969014000919A
:1015600008BD000000100240F0B50A68C2F30F2564
:1015700095FAA5F2B2FA82F369E001229A402A4272
:1015800064D0082B03D240F201129A4006E0A3F186
:1015900008024FF00114944044F080624C68082C1B
:1015A0000BD10C69C668170A97FAA7F7B7FA87F73D
:1015B00026EA1226BC402643C66092FAA2F700EB48
:1015C0001264B7FA87F74FEA870C0F27266807FAE5
:1015D0000CF7BE4392FAA2F7D1F804E0B7FA87F706
:1015E000BF000EFA07FE46EA0E0626604F68012F7E
:1015F00001D0092F2AD192FAA2F7B7FA87F74FEA5A
:10160000870C032707FA0CF7BE4392FAA2F7B7FA42
:1016100087F7D1F808E0BF000EFA07FE92FAA2FCA5
:1016200046EA0E06BCFA8CFC4FEA8C0E4FF0040C16
:1016300026600CFA0EFC92FAA2F2B2FA82F2CF689D
:10164000920026EA0C0697403E4326605B1C35FA62
:1016500003F292D10020F0BDF0B58FB000240B94BE
:101660000C94142101A80D94FEF72EFE142106A857
:10167000FEF72AFE4FF400752846FFF769FF0420A5
:10168000FFF766FFA81CCDE9060406A93E48FFF750
:101690006BFF3F4A3D49104612788A5844F21003C6
:1016A0009A430378CA5002788A58037822F4405249
:1016B00042F40052CA5002788A58037842F020025D
:1016C000CA5002788A58037822F04002CA50027841
:1016D0008A58037842F08002CA5002788E158A58E0
:1016E000037822F4407242F48072CA5002788A5819
:1016F000007822F4406242F480620A50254F0B9435
:101700000BA938460C94FFF7E3FE0DA938460D945B
:10171000FFF7BEFE4FF42020CDE90104CDE90446D9
:1017200001A938460394FFF7E9FE4FF4407090FAA0
:10173000A0F0B0FA80F0C54007EB8500C16A21F047
:101740001F0141F00101C162700490FAA0F1B1FAE9
:1017500081F1C84007EB8001CB684FF0F87292FA34
:10176000A2F54FF44010B5FA85F520FA05F50726E5
:10177000AE4092FAA2F2B2FA82F2D040B343844071
:101780002343CB600FB0F0BD0008014000000240D1
:10179000CC1D000800240140104808B5416941F003
:1017A00001014161406900F0010000900C480068AF
:1017B000C0F30220011D072901D2002000E0C01E55
:1017C000002181400801074981F800044FF0E02121
:1017D0004FF40060C1F8000108BD00000010024095
:1017E0000CED00E00BE000E070B586B00024184876
:1017F0000094019402940394816941F01001816185
:10180000816901F010010491816941F02001816139
:10181000816901F020010491816941F00401816135
:1018200080690C4E00F004004FF400550490002233
:1018300029463046FEF74AFF01200095CDE9010414
:101840000220039069463046FEF748FE06B070BDA0
:10185000001002400010014010B58EB00024079423
:10186000089409940A940B941C2168460C94FEF782
:101870002BFD1E484FF0804101600821C0E9011492
:1018800040F6FA71C0E903148461FFF7DFFA08B18A
:1018900072B6FEE74FF48050079007A91348FFF790
:1018A0002BFB08B172B6FEE71048FFF770FD08B1D8
:1018B00072B6FEE70B940BA90C480C94FFF792FA52
:1018C00008B172B6FEE76020CDE900040294082258
:1018D000694606480494FFF7F7FC08B172B6FEE7C4
:1018E0000248FFF729FC0EB010BD000024000020C4
:1018F00010B58EB000240794089409940A940B94B0
:101900001C2168460C94FEF7DFFC1D481B49016052
:101910000321C0E901146421C0E903148461FFF7C5
:1019200095FA08B172B6FEE74FF48050079007A908
:101930001348FFF7E1FA08B172B6FEE71048FFF767
:1019400046FC08B172B6FEE72020CDE90B040BA9D6
:101950000B48FFF747FA08B172B6FEE73020CDE931
:10196000000402940C22694605480494FFF708FC21
:10197000002801D072B6FEE70EB010BD000800408E
:101980006C000020FEE7FEE770477047FEF7AABE36
:1019900030B593B028216846FEF796FC14210AA8BA
:1019A000FEF792FC002401250F9410942804CDE941
:1019B00000501194129407946846FFF76DF808B12F
:1019C00072B6FEE70F200A90CDE90B540D9400216A
:1019D0000AA80E94FEF794FF08B172B6FEE7022043
:1019E0000F90800311900FA8FEF714FF002801D07C
:1019F00072B6FEE713B030BD704700000148FFF734
:101A0000E7BA00006C000020F0B50268164B174CD6
:101A1000174D4FF08047984205D0B84203D0A042FE
:101A200001D0A84203D122F070064A68324398429E
:101A300005D0B84203D0A04201D0A84203D122F47D
:101A40004074CA6822434C6922F08002224302603B
:101A50008A68C2620A688262984201D10969016398
:101A600001214161F0BD0000002C01400004004054
:101A70000008004010B501F01F030121046A9940DD
:101A80008C430462016A9A401143016210BD10B593
:101A9000846842EA032224F47F440A43224382609A
:101AA00010BD826822F070020A4342F00701816093
:101AB0007047000030B5026A22F001020262026A39
:101AC0004368846924F073050C682C4322F00205F6
:101AD0008A682A430A4DA8420BD122F00805CA6839
:101AE00023F440732A434D6922F004021D438B699D
:101AF0002B434360846149684163026230BD00004A
:101B0000002C014030B5026A22F010020262026A23
:101B1000436884690D6824F4E64444EA05248D682A
:101B200022F0200242EA05120B4DA8420ED1CD68E8
:101B300022F0800242EA05124D6923F4406343EA31
:101B400085038D6922F0400243EA85034360846186
:101B500049688163026230BD002C014030B5026AE1
:101B600022F480720262036A4268C46923F400733B
:101B700024F073050C682C438D6843EA05230C4D53
:101B8000A8420ED1CD6823F4006343EA05234D69D2
:101B900022F4405242EA05128D6923F4806342EA3E
:101BA00005124260C4614968C163036230BD000030
:101BB000002C014030B5026A22F480520262046AAD
:101BC0004268C3690D6823F4E64343EA05238D6840
:101BD00024F4005444EA0534064DA84204D14D696A
:101BE00022F4804242EA85124260C361496801647E
:101BF000046230BD002C014010B5036A046A24F071
:101C000001040462846924F0F00444EA021423F01D
:101C10000A020A438461026210BD10B5036A23F010
:101C2000100303628369046A23F4704343EA0232B7
:101C300024F0A00343EA01118261016210BDFEE7B6
:101C40000907090E002804DB00F1E02080F80014E9
:101C5000704700F00F0000F1E02080F8141D70477D
:101C600005490968C90105D54FF060410A68002A95
:101C7000FCD0087070470000FCED00E0FEF73AFD74
:101C8000FFF786FEFFF7B0FDFFF786FDFFF7E4FCE8
:101C9000FFF7E2FDFFF72CFE454A44491046137852
:101CA0000A1D9B5804786FF30F0343F0FA03A35007
:101CB000027842F2A0538A5847F6F074A2431A43BE
:101CC0000378CA503B4C394E4C3405780836394AB3
:101CD000394BAC510578341D2B510378CB5804781F
:101CE00043F001030B510378CB58047843F0080309
:101CF0000B510378CB58007843F002030B509068E7
:101D000040F001009060906840F00400906090689E
:101D1000C0F380000028FAD1906840F48070906091
:101D2000906840F480109060234808219038FFF7B5
:101D30005DFB21480C214838FFF778FA1F4C00253D
:101D400020780128FCD100211B4A084632F81030C7
:101D5000401CC0B21944FA28F8D3FA20B1FBF0F0C5
:101D6000154A6060903A81B21268D16340F6E4414E
:101D700048432570000BA060E1680844E0604FF420
:101D800000510F48FEF79AFC6078401CC0B26070AA
:101D90002828D5D3E0682821B0FBF1F081B209A052
:101DA000FEF716FA6570E560CAE700000000024021
:101DB000CC1D000800240140B400002000000020D9
:101DC000001001402575206D560D0A00081C304496
:101DD000586C8000000000000000000102030406AF
:101DE00007080900041E000800000020240000006D
:101DF00028010008281E000824000020E408000034
:101E00004401000800000000000000000000000085
:101E100000000000000000000100000010000000B1
:081E2000000000000024F400A2
:04000005080000ED02
:00000001FF
