:020000040800F2
:100000008009002091010008971F0008A91D000821
:10001000951F0008E50500086322000800000000A5
:100020000000000000000000000000009B1F00080E
:100030001F06000800000000991F00089D1F00080F
:10004000AB010008AB010008AB010008AB010008E0
:10005000AB010008AB010008AB010008AB010008D0
:10006000AB010008AB010008AB010008E90500087E
:10007000AB010008AB010008AB010008AB010008B0
:10008000AB010008AB010008AB010008AB010008A0
:10009000AB010008AB010008AB010008AB01000890
:1000A000AB010008AB010008AB010008AB01000880
:1000B000AB010008AB0100080D200008AB010008EF
:1000C000AB010008AB010008AB010008AB01000860
:1000D000AB010008AB010008AB010008AB01000850
:1000E000AB010008AB010008AB01000800F002F80A
:1000F00000F03FF80AA090E8000C82448344AAF183
:100100000107DA4501D100F034F8AFF2090EBAE880
:100110000F0013F0010F18BFFB1A43F0010318473B
:100120006822000088220000103A24BF78C878C1F5
:10013000FAD8520724BF30C830C144BF04680C60ED
:10014000704700000023002400250026103A28BF35
:1001500078C1FBD8520728BF30C148BF0B60704739
:10016000752900F07580002070471FB51FBD10B5C0
:1001700010BD00F05BF91146FFF7F7FF02F090F8B1
:1001800000F079F903B4FFF7F2FF03BC00F080F947
:100190000948804709480047FEE7FEE7FEE7FEE71B
:1001A000FEE7FEE7FEE7FEE7FEE7FEE70448054957
:1001B000054A064B7047000009200008ED000008C2
:1001C0008003002080090020800500208005002099
:1001D0000FB4044910B503AA029800F0F9F810BC56
:1001E0005DF814FB100000202DE9F0410E46044696
:1001F000002020622046E168884730B3252805D0DA
:10020000D4E901219047206A401CF2E7E1682046CA
:1002100000278847050018D0A5F14100192802D809
:1002200020354FF400673246294620462760FFF705
:1002300097FF40B1012804D0F61D26F007060836C6
:10024000D8E7361DD6E72846DAE7206ABDE8F08110
:100250002DE9F0410646002410687529314616A59F
:1002600010D0AFF30080002802DA404213A507E067
:1002700031688A0701D512A502E0490704D511A506
:10028000012401E0AFF3008000210A2206F12407D7
:1002900009E0B0FBF2FCB0FBF2F302FB1C003030D3
:1002A00078541846491C0028F3D123462A46304684
:1002B000BDE8F04100F032B8000000002D00000061
:1002C0002B000000200000004FF0000200B5134694
:1002D00094469646203922BFA0E80C50A0E80C5066
:1002E000B1F12001BFF4F7AF090728BFA0E80C5017
:1002F00048BF0CC05DF804EB890028BF40F8042B10
:1003000008BF704748BF20F8022B11F0804F18BF7C
:1003100000F8012B70477047704770472DE9F04790
:100320000D4699469246044600F124080168880665
:1003300004D5E06921F01001216000E00120A8420D
:1003400001DD471B00E00027A1697A1902EB0900D3
:10035000081AA0612078C00602D42046AFF30080BE
:10036000002608E0D4E901211AF806009047206A27
:10037000401C761C20624E45F4DB2078C0060AD56E
:100380002046AFF3008006E0D4E9012130209047F9
:10039000206A401C2062381EA7F10107F4DC07E048
:1003A000D4E9012118F805009047206A401C20621A
:1003B000281EA5F10105F3DC2046AFF3008020786C
:1003C000000602D50220BDE8F0870120FBE700000F
:1003D000074B70B50D467B4400F011F804462846E3
:1003E00000F020F810B14FF0FF3070BD204670BD16
:1003F000AB1E000001694A1C02610878704700B515
:100400008FB0CDE901310021059105497944CDE94D
:10041000031011466846FFF7E7FE0FB000BD00006D
:10042000E5FFFFFF007B00F080007047754600F09D
:100430002BF8AE4605006946534620F00700854676
:1004400018B020B5FFF7B2FEBDE820404FF000061F
:100450004FF000074FF000084FF0000B21F00701AC
:10046000AC46ACE8C009ACE8C009ACE8C009ACE8EF
:10047000C0098D46704710B50446AFF30080204692
:10048000BDE81040FFF77EBE004870471C03002007
:1004900001491820ABBEFEE72600020070470000AD
:1004A00070B5044600688168C943C90717D18168DF
:1004B00021F00101816000F029FD05460AE000BF3E
:1004C00000F024FD401B022804D920688068C04346
:1004D000C00706D020688068C043C007F0D0002065
:1004E00070BDA06A40F01000A062E06A40F0010018
:1004F000E062012070BD10B50146406A826A12F0C8
:10050000500F05D0006A026BBDE810400846104746
:10051000816A41F40071816201688968C1F34241D6
:1005200007290CD1017B51B9816A21F48071816264
:10053000816AC90403D4816A41F00101816200F03B
:100540005BF910BD10B5406A816A41F040018162DB
:10055000C16A41F00401C16200F06DF910BD10B52F
:10056000406A00F067F910BDF8B500260446009611
:1005700000688168C943C9072DD0816841F0010135
:100580008160164816490068B0FBF1F000E0401E9B
:1005900000900028FBD100F0B9FC054616E000BF32
:1005A00000F0B4FC401B022810D920688068C043CA
:1005B000C0070BD0A06A40F01000A062E06A40F0D3
:1005C0000100E06284F824600120F8BD20688068A2
:1005D000C043C007E4D10020F8BD00002000002087
:1005E00040420F00FEE70000014800F081BA000021
:1005F000D802002030B590F840500124AC40C56BC3
:100600006C60046863604368102B036803D09960D2
:100610000068C26030BD9A600068C16030BD70473C
:1006200072B6FEE7F8B500250446009590F8240060
:10063000012808D0012084F824002046FFF730FF6D
:10064000060002D053E00220F8BDA06A20F48850D2
:1006500040F00200A062022000F0F6FC2649096882
:10066000B1FBF0F0400000E0401E00900028FBD1FC
:100670002046FFF779FF2068816841F0080181601A
:1006800000F044FC074608E000F040FCC01B0A28CC
:1006900003D920688068000715D4206880680007A7
:1006A000F2D42068816841F00401816000F02EFCE2
:1006B000074612E000F02AFCC01B0A280DD920686A
:1006C0008068400709D5A06A20F0020040F01000C1
:1006D000A06284F824500120F8BD2068806840079B
:1006E000E8D4A06A20F0020040F00100A06284F883
:1006F00024503046F8BD000020000020F8B500244A
:10070000009490F824202546012A12D0012280F876
:1007100024204A681F23072A0DD20668776B521ED1
:1007200002EB820293409F430B6893401F43776321
:1007300019E00220F8BD06680D2A0AD2376BD21FD5
:1007400002EB820293409F430B6893401F43376341
:1007500009E0F76A0D3A02EB820293409F430B686F
:1007600093401F43F7620A68072306680A2A0AD3E0
:10077000F7680A3A02EB420293409F438B6893402A
:100780001F43F76008E0376902EB420293409F4342
:100790008B6893401F4337610A68102A01D0112AE1
:1007A00020D1124B02689A4217D193681B0219D4C8
:1007B000936843F4000393600968102912D10C492F
:1007C0000C4A0968B1FBF2F101EB8101490000E03C
:1007D000491E00910029FBD104E0816A41F020010B
:1007E0008162012480F824502046F8BD0024014095
:1007F0002000002040420F0000680B49884211D1C0
:1008000000210A4A084600BF32F81030401CC0B22E
:100810001944FA28F8D3FA20B1FBF0F104484160FA
:10082000012101707047000000240140E400002015
:1008300000000020704770472DE9F0414FF000079D
:1008400004003D467ED0A06A002628B9E66284F8FE
:100850002460204600F07EF82046FFF721FEA16AC2
:10086000C90600D420B1A06A40F01000A06269E07F
:10087000A16A21F4885141F00201A1626268E16934
:10088000237B0A4347EA43010A43A1684FF4807778
:10089000B94209D0012907D05FF0000194F814C0D3
:1008A000BCF1010F02D00AE03946F7E7F3B1A36AC1
:1008B00043F02003A362E36A43F00103E362236889
:1008C000D3F804C02CF4694C4CEA010CC3F804C002
:1008D00021688B68DFF870C003EA0C0313438B6058
:1008E000A168B9420BD0012909D00CE0DFF85CC047
:1008F000A3690CEB43330B4343F40061DFE7218A28
:100900000D05A5F580152168CB6A23F470032B43F0
:10091000CB62216889680E4B1940914208D1E6628A
:10092000A16A21F0020141F00101A162BDE8F0815C
:10093000A06A20F0020040F01000A062E06A40F0DF
:100940000100E0620120F1E7FDF7E1FF00E0FFFFB9
:10095000FE0E1FFF70B586B0002605460096019674
:100960000296039600681A4988422FD1194988696E
:1009700040F400708861886900F400700490886910
:1009800040F0040088618869694600F00400049022
:1009900002200090032001900F4800F0B9F9104C9C
:1009A0000E48C4E900068020C4E9026040002061CE
:1009B000800060612020A0610002E061204600F01C
:1009C00041F908B1FFF72CFE2C62656206B070BDDC
:1009D00000240140001002400008014008000240CD
:1009E000D80200202DE9F047894604463B490068BB
:1009F0003B4F0E1D9046884201D0B84207D1306867
:100A000010F4702F03D001252846BDE8F08794F834
:100A1000240001280CD0012084F824002046FFF790
:100A2000A3FD05004FF0000004D084F82400EBE79C
:100A30000220EAE7A16A40F60162914341F4807125
:100A4000A1622168B94218D1326812F4702F14D013
:100A5000A16A41F48011A1623168490505D5A16AF6
:100A600021F4005141F48051A162A16AC9040AD560
:100A7000E16A21F00601E16206E0A26A22F4801236
:100A8000A2624968E9E7E06284F82400216A154817
:100A90008862216A1448C862216A14480863216880
:100AA0006FF0020008602068816841F48071816005
:100AB000216843464A464C31206A00F0F1F820682C
:100AC0008168C1F342410729816803D041F4801154
:100AD000816099E741F4A001FAE700000024014099
:100AE00000280140F70400085F05000845050008DC
:100AF0002DE9F05FC16B0C6801680B68D0F840C04D
:100B0000042202FA0CF2494DDFF824A1494E4A4F63
:100B1000DFF828B1DFF828E122422CD05A072AD585
:100B20000A68920603D40A6822F004020A60016887
:100B3000A94201D1042219E0514501D1402215E01A
:100B4000B14202D14FF4806210E0B94202D14FF4B9
:100B500080420BE0594502D14FF4802206E07145F6
:100B600002D14FF4800201E04FF080622F49083932
:100B70004A60C16A3BE04FF0020808FA0CF818EA34
:100B8000040F4FF000094FF0010235D05FEA83787F
:100B900032D50B689B0605D40B6823F00A030B6063
:100BA00080F821200168A94201D1022219E05145B3
:100BB00001D1202215E0B14202D14FF4007210E0C1
:100BC000B94202D14FF400520BE0594502D14FF423
:100BD000003206E0714502D14FF4001201E04FF0FF
:100BE0000072124908394A6080F82090816A002911
:100BF0001AD0BDE8F05F0847082505FA0CF5254234
:100C000012D01B0710D50B6823F00E030B6090F871
:100C10004010C36B02FA01F15960826380F8212011
:100C200080F82090016BE2E7BDE8F09F08000240E9
:100C30001C000240300002404400024058000240C4
:100C40006C00024030B528B308C813491422194477
:100C5000B1FBF2F18900C163104981630221417740
:100C60001A6843F6F0718A43D0E900142143D0E9B1
:100C700002452C432143046921434469214384698B
:100C8000214311431960002141630122427701771A
:100C9000084630BD012030BDF8FFFDBF0000024016
:100CA00070B5044690F82000002501280CD00120E2
:100CB00084F8200094F821600020012E06D084F8EA
:100CC00020000225284670BD022070BD022684F84F
:100CD0002160A0632068066826F0010606602046B1
:100CE000FFF788FCE06A00282068016802D041F024
:100CF0000E0106E021F0040101602068016841F066
:100D00000A0101602068016841F001010160D9E732
:100D10002DE9F84FDFF8B891002409F1040A0AF12F
:100D2000040B23460F270BF1040EC9E00125A54053
:100D30002A40AA427DD1674ED1F804C0ACEB060828
:100D4000B44532D014DCBCF1030F3AD009DCBCF15D
:100D5000000F2AD0BCF1010F1CD0BCF1020F31D121
:100D60001DE0BCF1110F17D0BCF1120F2AD119E010
:100D7000B8F5881F19D006DCB8F5803F15D0B8F556
:100D8000801F1FD111E0B8F5001F0ED0B8F5041F69
:100D900018D10AE0CB6815E0CB681B1D12E0CB68C8
:100DA00008330FE0CB680C330CE08B682BB1012BC0
:100DB0004FF0080303D0456104E0042302E005611D
:100DC00000E00023FF2A01D8064601E000F10406F6
:100DD0004FEA840501D9A5F12005D6F8008007FA6D
:100DE00005FC28EA0C0803FA05F548EA0508C6F8E8
:100DF00000804D68ED0062D5374DAE6946F00106C2
:100E0000AE61AD6924F0030605F001050095334D90
:100E100006EB050CDCF80850A607360F07FA06F8B3
:100E200025EA0805DFF8B880404503D14FF00008F7
:100E300017E044E0DFF8AC80404502D14FF00108F4
:100E40000FE0DFF8A480404502D14FF0020808E02F
:100E5000DFF89880404502D14FF0030801E04FF0E1
:100E6000040808FA06F848EA0508CCF808804D6836
:100E7000D9F80060ED034D4601D5164300E09643D6
:100E80002E604D68DAF80060AD03554601D5164373
:100E900000E096432E604D68DBF80060ED025D4691
:100EA00001D5164300E096432E604D68DEF80060E1
:100EB000AD02754601D5164300E096432E60641CD2
:100EC0000D682A46E5407FF431AFBDE8F88F000099
:100ED0000004014000001110001002400000014019
:100EE00000080140000C01400010014000140140C6
:100EF000C26821EA02030A4043EA024101617047E5
:100F00000AB1016170470904FBE7000001488068ED
:100F100070470000140000200248816802781144E4
:100F20008160704714000020074810B5016841F047
:100F300010010160032000F075F80F2000F006F8A2
:100F400000F024F8002010BD0020024070B50D4DC7
:100F500004464FF47A712878B1FBF0F00A49096829
:100F6000B1FBF0F000F0B6FB48B9102C07D200221C
:100F70002146501E00F036F800206C6070BD012044
:100F800070BD000014000020200000200C4808B5AF
:100F9000816941F001018161816901F001010091E4
:100FA000C16941F08051C161C06900F0805000907A
:100FB0000448416821F0E06141F00071416008BDE2
:100FC0000010024000000140002809DB00F01F0271
:100FD000012191404009800000F1E020C0F800119B
:100FE00070470000F0B40E4B1B680C46C3F302239D
:100FF000C3F10705042D00D90425191D072901D2C5
:10100000002300E0DB1E012606FA05F1491E2140FF
:1010100099409E40761E16403143F0BC01F022B943
:101020000CED00E0064900F0070208684FF6FF03E8
:10103000184040EA0220034A10430860704700004D
:101040000CED00E00000FA0510B529A401461DCC06
:1010500086B08DE81D002AA02A4C0068049000206C
:10106000012923D002293AD010291DD161682268B4
:10107000D20119D5C1F38342C9031DF8020009D575
:10108000616804AAC1F34041515C1F4AB2FBF1F10F
:10109000484301E01D4948436168490204D44000C7
:1010A0005FF00301B0FBF1F006B010BD226AC2F39D
:1010B0000121012903D1920701D5C803F4E70229D0
:1010C00005D1626A920702D549F64040ECE7032950
:1010D000EAD121688903E7D54FF22440E4E700F024
:1010E00023F96168C1F38131491C4900DAE7000046
:1010F00002030405060708090A0B0C0D0E0F101059
:10110000010200000010024000127A0000093D00B8
:101110002DE9F84305460078354CC00754D0E06906
:101120000026C00008D4E06940F08050E061E0692A
:10113000012600F0805000902E480168C90512D4A5
:101140000168804641F480710160FFF7DFFE0746C9
:1011500005E000BFFFF7DAFEC01B642823D8D8F8EB
:101160000000C005F6D5206A10F4407021D0A9888F
:1011700001F4407181421CD0206A1F49012220F4F1
:1011800040700A6000220A602062C00711D0FFF799
:10119000BDFE074641F2883808E000BFFFF7B6FE03
:1011A000C11B414502D90320BDE8F883206A8007AE
:1011B000F4D5206A696820F44070084320621EB1AB
:1011C000E06920F08050E0612878800705D56068EC
:1011D000A96820F44040084360602878C00605D51F
:1011E0006068E96820F48000084360600020DBE765
:1011F0000010024000700040400442422DE9F047D8
:101200000F46050061D0434E306800F00700B84239
:1012100009D2306820F0070038433060306800F0B1
:101220000700B84251D128683B4C810712D54007CE
:1012300003D5606840F4E06060602878000703D55B
:10124000606840F4605060606068A96820F0F00059
:10125000084360602878C00728D06868012810D04B
:101260002168022810D0890700292EDA616821F050
:10127000030101436160FFF749FE804641F288396E
:101280000DE021688903EFE78901EDE7FFF73EFEF6
:10129000A0EB0801494502D90320BDE8F08760684A
:1012A000696800F00C00B0EB810FEFD1306800F0FE
:1012B0000700B8420BD9306820F00700384330608F
:1012C000306800F00700B84201D00120E5E7287837
:1012D000400705D56068E96820F4E0600843606075
:1012E0002878000706D56068296920F4605040EA34
:1012F000C100606000F028F86168084AC1F303117A
:10130000515CC8400649086006480068FFF71EFEA9
:101310000020C2E7002002400010024070230008B5
:101320002000002018000020044805490068496892
:10133000044AC1F3C221515CC8407047200000201C
:10134000001002408023000812A185B00FC98DE86B
:101350000F0014A0144A006804905168134801F06B
:101360000C03042B10D0082B0ED1C1F38343C90307
:101370001DF803000AD5516804AAC1F34041515C2D
:101380000A4A5043B0FBF1F005B0704708494843A2
:10139000FAE7000002030405060708090A0B0C0D12
:1013A0000E0F1010010200000010024000127A001F
:1013B00000093D002DE9F84F040070D02078C04DA1
:1013C000C00749D06868C0F38100012807D0686869
:1013D000C0F38100022809D16868C00306D52868D7
:1013E000800339D560680028E7D035E06068B0F543
:1013F000803F0BD010B1B0F5A02F11D0286820F499
:1014000080302860286820F4802002E0286840F4BA
:1014100080302860606890B1FFF778FD06460AE0EA
:10142000286840F480202860F0E700BFFFF76EFDD9
:10143000801B642873D828688003F7D50CE0FFF779
:1014400065FD064605E000BFFFF760FD801B6428D0
:10145000F0D828688003F7D420789A4E80074FF0A0
:1014600001094FF0000839D5686810F00C0F07D05B
:101470006868C0F38100022809D16868C00306D4F7
:101480002868800714D52069012808D110E0206958
:10149000B0B1C6F80090FFF739FD074605E00AE154
:1014A000FFF734FDC01B0228C4D828688007F7D591
:1014B0002868616920F0F80040EAC10028600DE06A
:1014C000C6F80080FFF722FD074604E0FFF71EFD87
:1014D000C01B022823D828688007F7D4207800078B
:1014E0002CD57948A169D9B1C0F80090FFF70EFD5D
:1014F000074604E0FFF70AFDC01B02280FD8686A00
:101500008007F7D571484FF4FA510068B0FBF1F04D
:10151000009000BF0098411E0091FAD20EE080E0DA
:10152000C0F80080FFF7F2FC074604E0FFF7EEFC8E
:10153000C01B022875D8686A8007F7D42078400756
:1015400060D5E8690027C00008D4E86940F0805001
:10155000E861E869012700F0805000905C4801686C
:10156000C90513D40168834641F480710160FFF717
:10157000CDFC824606E000BFFFF7C8FCA0EB0A00E6
:1015800064284ED8DBF80000C005F5D5E0680128D6
:101590000AD008B1052813D0286A20F0010028627B
:1015A000286A20F0040002E0286A40F00100286266
:1015B000E06841F2883B98B1FFF7A8FC82460BE057
:1015C000286A40F004002862EEE700BFFFF79EFCA7
:1015D000A0EB0A0159455AD8286A8007F6D50CE0D5
:1015E000FFF794FC824605E0FFF790FCA0EB0A01B0
:1015F00059454CD8286A8007F6D41FB1E86920F015
:101600008050E861E06988B36968C1F3810102290B
:1016100044D00228C6F8608004D0FFF777FC044667
:1016200038E034E0FFF772FC074604E0FFF76EFC99
:10163000C01B02282BD828688001F7D4206AB0F597
:10164000803F05D16868A16820F4003008436860D5
:10165000D4E908010843696821F4741108436860FB
:10166000C6F86090FFF752FC044606E025E000BF94
:10167000FFF74CFC001B022809D828688001F7D529
:101680001BE000BFFFF742FC001B022802D9032029
:10169000BDE8F88F28688001F4D40EE00128F7D067
:1016A0006868226A00F48031914204D1616A00F4D2
:1016B0007010884201D00120EAE70020E8E700002E
:1016C00000100240000042428004424220000020FC
:1016D0000070004010B5401EB0F1807F01D30120A2
:1016E00010BD4FF0E02460610F21601700F0BAFDDB
:1016F0000020A06107202061002010BD70477047C6
:1017000070B590F83C20012A26D0012480F83C4096
:10171000022280F83D2003685A689D6822F0700616
:101720000A6832435A600D4B02689A4208D0B2F1FF
:10173000804F05D00A4B9A4202D00A4B9A4204D1FC
:10174000496825F080031943916080F83D400021ED
:1017500080F83C10084670BD022070BD002C01408E
:10176000000400400008004010B5040003D094F8C5
:101770003D0010B107E0012010BD002084F83C00BE
:10178000204600F01FF8022084F83D00211D20684B
:1017900000F04CFC012084F8460084F83E0084F8F8
:1017A0003F0084F8400084F8410084F8420084F847
:1017B000430084F8440084F8450084F83D0000208C
:1017C00010BD000008B501681048B1F1804F14D079
:1017D0000F4A914219D1C16941F00401C161C06948
:1017E000002200F00400009011461E20FFF7FAFBD3
:1017F000BDE808401E20FFF7E7BBC16941F00101C9
:10180000C161C06900F00100009008BD00100240F5
:101810000008004070B5044690F83C00012817D03D
:10182000012584F83C50022084F83D00206882683D
:1018300022F0770222F47F4282600868502830D07C
:101840000DDC20284DD005DC98B310283BD148E0B2
:10185000022070BD302844D0402834D139E06028BF
:1018600028D0702806D0B0F5805F2CD0B0F5005F8E
:1018700029D10AE0CB68D1E90121206800F019FCE8
:101880002068816841F0770109E0CB68D1E9012146
:10189000206800F00EFC2068816841F4804181607E
:1018A00011E0CA684968206800F0B8FC502120683F
:1018B00007E016E0CA684968206800F0C0FC6021B3
:1018C000206800F000FC84F83D50002084F83C00C3
:1018D00070BDCA684968206800F0A0FC40212068FB
:1018E000EFE7226801461046EBE7704770B5044603
:1018F000006801694FF00005C943890715D4C16824
:10190000C943890711D4E91E0161012020772068AD
:1019100080698007204602D0FFF7E7FF04E000F06F
:10192000E3F8204600F0EFF9257720680169C94304
:10193000490717D4C168C943490713D46FF004019C
:101940000161022020772068806910F4407F2046E2
:1019500002D0FFF7CAFF04E000F0C6F8204600F00E
:10196000D2F9257720680169C943090716D4C168EF
:10197000C943090712D46FF00801016104202077E0
:101980002068C0698007204602D0FFF7AEFF04E060
:1019900000F0AAF8204600F0B6F925772068016922
:1019A000C943C90617D4C168C943C90613D46FF027
:1019B00010010161082020772068C06910F4407F81
:1019C000204602D0FFF791FF04E000F08DF820469A
:1019D00000F099F9257720680169C943C90708D142
:1019E000C168C943C90704D1891E0161204600F0BE
:1019F000D9F920680169C943090609D4C168C943F6
:101A0000090605D46FF0800101612046FFF776FEDC
:101A100020680169C943490609D4C168C943490618
:101A200005D46FF040010161204600F0BCF9206848
:101A30000169C94389060BD4C168C943890607D423
:101A40006FF0200101612046BDE87040FFF757BEEE
:101A500070BD000000B585B0002100910191029198
:101A600003910068B0F1804F11D10A48816941F0BB
:101A7000040181618069694600F00400049004203B
:101A800000900220019003900348FFF741F905B050
:101A900000BD0000001002400008014010B50446DF
:101AA00090F83C0001280AD0012084F83C0042B1A3
:101AB000042A0AD0082A0CD00C2A11D10DE00220E9
:101AC00010BD206800F008FB0AE0206800F02CFB45
:101AD00006E0206800F054FB02E0206800F07CFB88
:101AE000002084F83C0010BD704710B5040003D0FE
:101AF00094F83D0010B107E0012010BD002084F8EB
:101B00003C00204600F01EF8022084F83D00211D14
:101B1000206800F08BFA012084F8460084F83E002B
:101B200084F83F0084F8400084F8410084F84200C3
:101B300084F8430084F8440084F8450084F83D00AC
:101B4000002010BD7047000010B50446022249B1C4
:101B500004290ED0082913D094F84100012816D08A
:101B6000012010BD94F83E000128F9D184F83E20F0
:101B70000FE094F83F000128F2D184F83F2008E0FC
:101B800094F840000128EBD184F8402001E084F86B
:101B900041200122206800F07FFA0F492068884226
:101BA00003D1426C42F4004242642068884208D06B
:101BB000B0F1804F05D00949884202D008498842D7
:101BC00004D1816801F00701062903D0016841F0C2
:101BD00001010160002010BD002C01400004004004
:101BE0000008004070B5044690F83C000D460128FE
:101BF0000AD0012084F83C0042B1042A18D0082AF7
:101C00002AD00C2A4DD139E0022070BD206800F0A6
:101C100063FA2068816941F0080181612068816967
:101C200021F004018161206881692A69114311E072
:101C3000206800F079FA2068816941F400618161CF
:101C40002068816921F480618161206881692A6945
:101C500041EA0221816124E0206800F091FA2068C5
:101C6000C16941F00801C1612068C16921F0040126
:101C7000C1612068C1692A69114311E0206800F040
:101C8000ABFA2068C16941F40061C1612068C16993
:101C900021F48061C1612068C1692A6941EA022199
:101CA000C161002084F83C0070BD10B5040003D071
:101CB00094F83D0010B107E0012010BD002084F829
:101CC0003C00204600F01EF8022084F83D00211D53
:101CD000206800F0ABF9012084F8460084F83E004B
:101CE00084F83F0084F8400084F8410084F8420002
:101CF00084F8430084F8440084F8450084F83D00EB
:101D0000002010BD7047704710B50446022249B14B
:101D100004290ED0082913D094F84100012816D0C8
:101D2000012010BD94F83E000128F9D184F83E202E
:101D30000FE094F83F000128F2D184F83F2008E03A
:101D400094F840000128EBD184F8402001E084F8A9
:101D500041200122206800F09FF90F492068884245
:101D600003D1426C42F4004242642068884208D0A9
:101D7000B0F1804F05D00949884202D00849884215
:101D800004D1816801F00701062903D0016841F000
:101D900001010160002010BD002C01400004004042
:101DA0000008004070477047FEE700003EB5002481
:101DB00010480094019402940D49846001600473FA
:101DC0000475012505614FF420214460C161FEF7CF
:101DD00033FD08B172B6FEE70095CDE901546946BE
:101DE0000448FEF78BFC002801D072B6FEE73EBD2A
:101DF000002401402400002070B586B0002418485B
:101E00000094019402940394816941F0100181616E
:101E1000816901F010010491816941F02001816123
:101E2000816901F020010491816941F0040181611F
:101E300080690C4E00F004004FF40055049000221D
:101E400029463046FFF75CF801200095CDE90104F2
:101E50000220039069463046FEF75AFF06B070BD77
:101E6000001002400010014010B58EB0002407940D
:101E7000089409940A940B941C2168460C94FEF76C
:101E800023FA1E484FF0804101600821C0E9011487
:101E900040F6FA71C0E903148461FFF765FC08B1EC
:101EA00072B6FEE74FF48050079007A91348FFF77A
:101EB000B1FC08B172B6FEE71048FFF7F6FE08B1B4
:101EC00072B6FEE70B940BA90C480C94FFF718FCB4
:101ED00008B172B6FEE76020CDE900040294082242
:101EE000694606480494FFF77DFE08B172B6FEE726
:101EF0000248FFF7AFFD0EB010BD000054000020F7
:101F000010B58EB000240794089409940A940B9499
:101F10001C2168460C94FEF7D7F91D481B49016047
:101F20000321C0E901146421C0E903148461FFF7AF
:101F30001BFC08B172B6FEE74FF48050079007A96A
:101F40001348FFF767FC08B172B6FEE71048FFF7C9
:101F5000CCFD08B172B6FEE70B940BA90C480C94AB
:101F6000FFF7CEFB08B172B6FEE73020CDE90004E2
:101F700002940C22694606480494FFF78FFD00285E
:101F800001D072B6FEE70EB010BD000000080040A0
:101F90009C000020FEE7FEE770477047FEF7BCBFDD
:101FA00030B593B028216846FEF78EF914210AA8AF
:101FB000FEF78AF9002401250F9410942804CDE936
:101FC00000501194129407946846FFF7F3F908B192
:101FD00072B6FEE70F200A90CDE90B540D94002154
:101FE0000AA80E94FFF70AF908B172B6FEE70220BC
:101FF0000F90800311900FA8FFF78AF8002801D0F6
:1020000072B6FEE713B030BD7047000010B505484A
:10201000FFF76CFCBDE810404FF400510248FEF79A
:1020200067BF00009C00002000100140F0B502686E
:10203000164B174C174D4FF08047984205D0B842C9
:1020400003D0A04201D0A84203D122F070064A6812
:102050003243984205D0B84203D0A04201D0A842F2
:1020600003D122F44074CA6822434C6922F08002F2
:10207000224302608A68C2620A688262984201D181
:102080000969016301214161F0BD0000002C01409C
:10209000000400400008004010B501F01F030121BA
:1020A000046A99408C430462016A9A4011430162B8
:1020B00010BD10B5846842EA032224F47F440A4329
:1020C0002243826010BD826822F070020A4342F00F
:1020D000070181607047000030B5026A22F00102FA
:1020E0000262026A4368846924F073050C682C4319
:1020F00022F002058A682A430A4DA8420BD122F039
:102100000805CA6823F440732A434D6922F004028B
:102110001D438B692B4343608461496841630262BC
:1021200030BD0000002C014030B5026A22F01002E0
:102130000262026A436884690D6824F4E64444EA52
:1021400005248D6822F0200242EA05120B4DA842B8
:102150000ED1CD6822F0800242EA05124D6923F4C7
:10216000406343EA85038D6922F0400243EA850318
:102170004360846149688163026230BD002C014084
:1021800030B5026A22F480720262036A4268C4694E
:1021900023F4007324F073050C682C438D6843EA24
:1021A00005230C4DA8420ED1CD6823F4006343EA09
:1021B00005234D6922F4405242EA05128D6923F449
:1021C000806342EA05124260C4614968C1630362E8
:1021D00030BD0000002C014030B5026A22F480526C
:1021E0000262046A4268C3690D6823F4E64343EA65
:1021F00005238D6824F4005444EA0534064DA842B2
:1022000004D14D6922F4804242EA85124260C361E2
:1022100049680164046230BD002C014010B5036AB6
:10222000046A24F001040462846924F0F00444EA9E
:10223000021423F00A020A438461026210BD10B541
:10224000036A23F0100303628369046A23F4704372
:1022500043EA023224F0A00343EA011182610162E1
:1022600010BDFEE70907090E002804DB00F1E0209D
:1022700080F80014704700F00F0000F1E02080F8B3
:10228000141D704705490968C90105D54FF0604123
:102290000A68002AFCD0087070470000FCED00E0DE
:1022A00008B5FEF741FEFFF77BFEFFF7A5FD2A48C4
:1022B000416941F0010141614069002200F00100E3
:1022C000009011460B20FEF78DFE0B20FEF77CFEE2
:1022D000FFF76CFDFFF7C8FDFFF712FE08211F484E
:1022E000FFF712FD1D483038FEF79CF91B49FA2212
:1022F0009031A1F1C000FEF775FB18480C21483061
:10230000FFF722FC164C002520780128FCD1134A47
:102310006068126881B2D16340F6E4414843257099
:10232000000BA060E1680844E0604FF400510D48E4
:10233000FEF7DEFD6078401CC0B260702828E3D351
:10234000E0682821B0FBF1F081B207A0FDF740FF63
:102350006570E560D8E700000010024054000020DE
:1023600000000020001001402575206D560D0A0068
:102370000000000000000000010203040607080935
:102380000000000001020304A82300080000002050
:102390002400000028010008CC23000824000020AD
:1023A0005C0900004401000800000000000000007B
:1023B000000000000000000000000000010000001C
:0C23C00010000000000000000024F400E9
:04000005080000ED02
:00000001FF
